{
  "_format": "hh-sol-artifact-1",
  "contractName": "AnemonethV1",
  "sourceName": "contracts/anemonethV1.sol",
  "abi": [
    {
      "anonymous": false,
      "inputs": [
        {
          "indexed": true,
          "internalType": "address",
          "name": "owner",
          "type": "address"
        },
        {
          "indexed": true,
          "internalType": "address",
          "name": "spender",
          "type": "address"
        },
        {
          "indexed": false,
          "internalType": "uint256",
          "name": "value",
          "type": "uint256"
        }
      ],
      "name": "Approval",
      "type": "event"
    },
    {
      "anonymous": false,
      "inputs": [
        {
          "indexed": true,
          "internalType": "address",
          "name": "_addr",
          "type": "address"
        },
        {
          "indexed": false,
          "internalType": "uint256",
          "name": "_amount",
          "type": "uint256"
        }
      ],
      "name": "Distribution",
      "type": "event"
    },
    {
      "anonymous": false,
      "inputs": [
        {
          "indexed": true,
          "internalType": "address",
          "name": "previousOwner",
          "type": "address"
        },
        {
          "indexed": true,
          "internalType": "address",
          "name": "newOwner",
          "type": "address"
        }
      ],
      "name": "OwnershipTransferred",
      "type": "event"
    },
    {
      "anonymous": false,
      "inputs": [
        {
          "indexed": true,
          "internalType": "address",
          "name": "from",
          "type": "address"
        },
        {
          "indexed": true,
          "internalType": "address",
          "name": "to",
          "type": "address"
        },
        {
          "indexed": false,
          "internalType": "uint256",
          "name": "value",
          "type": "uint256"
        }
      ],
      "name": "Transfer",
      "type": "event"
    },
    {
      "stateMutability": "payable",
      "type": "fallback"
    },
    {
      "inputs": [
        {
          "internalType": "address",
          "name": "owner",
          "type": "address"
        },
        {
          "internalType": "address",
          "name": "spender",
          "type": "address"
        }
      ],
      "name": "allowance",
      "outputs": [
        {
          "internalType": "uint256",
          "name": "",
          "type": "uint256"
        }
      ],
      "stateMutability": "view",
      "type": "function"
    },
    {
      "inputs": [
        {
          "internalType": "address",
          "name": "spender",
          "type": "address"
        },
        {
          "internalType": "uint256",
          "name": "amount",
          "type": "uint256"
        }
      ],
      "name": "approve",
      "outputs": [
        {
          "internalType": "bool",
          "name": "",
          "type": "bool"
        }
      ],
      "stateMutability": "nonpayable",
      "type": "function"
    },
    {
      "inputs": [
        {
          "internalType": "address",
          "name": "account",
          "type": "address"
        }
      ],
      "name": "balanceOf",
      "outputs": [
        {
          "internalType": "uint256",
          "name": "",
          "type": "uint256"
        }
      ],
      "stateMutability": "view",
      "type": "function"
    },
    {
      "inputs": [],
      "name": "cap",
      "outputs": [
        {
          "internalType": "uint256",
          "name": "",
          "type": "uint256"
        }
      ],
      "stateMutability": "view",
      "type": "function"
    },
    {
      "inputs": [],
      "name": "decimals",
      "outputs": [
        {
          "internalType": "uint8",
          "name": "",
          "type": "uint8"
        }
      ],
      "stateMutability": "view",
      "type": "function"
    },
    {
      "inputs": [
        {
          "internalType": "address",
          "name": "spender",
          "type": "address"
        },
        {
          "internalType": "uint256",
          "name": "subtractedValue",
          "type": "uint256"
        }
      ],
      "name": "decreaseAllowance",
      "outputs": [
        {
          "internalType": "bool",
          "name": "",
          "type": "bool"
        }
      ],
      "stateMutability": "nonpayable",
      "type": "function"
    },
    {
      "inputs": [
        {
          "internalType": "address",
          "name": "_addr",
          "type": "address"
        }
      ],
      "name": "getCurrRedeemable",
      "outputs": [
        {
          "internalType": "uint256",
          "name": "",
          "type": "uint256"
        }
      ],
      "stateMutability": "view",
      "type": "function"
    },
    {
      "inputs": [
        {
          "internalType": "address",
          "name": "_addr",
          "type": "address"
        }
      ],
      "name": "getTotalEarned",
      "outputs": [
        {
          "internalType": "uint256",
          "name": "",
          "type": "uint256"
        }
      ],
      "stateMutability": "view",
      "type": "function"
    },
    {
      "inputs": [],
      "name": "getWeekCount",
      "outputs": [
        {
          "internalType": "uint256",
          "name": "",
          "type": "uint256"
        }
      ],
      "stateMutability": "view",
      "type": "function"
    },
    {
      "inputs": [
        {
          "internalType": "uint256",
          "name": "_week",
          "type": "uint256"
        },
        {
          "internalType": "address",
          "name": "_addr",
          "type": "address"
        }
      ],
      "name": "gethistoricalEarnings",
      "outputs": [
        {
          "internalType": "uint256",
          "name": "",
          "type": "uint256"
        }
      ],
      "stateMutability": "view",
      "type": "function"
    },
    {
      "inputs": [
        {
          "internalType": "address",
          "name": "spender",
          "type": "address"
        },
        {
          "internalType": "uint256",
          "name": "addedValue",
          "type": "uint256"
        }
      ],
      "name": "increaseAllowance",
      "outputs": [
        {
          "internalType": "bool",
          "name": "",
          "type": "bool"
        }
      ],
      "stateMutability": "nonpayable",
      "type": "function"
    },
    {
      "inputs": [
        {
          "internalType": "string",
          "name": "name_",
          "type": "string"
        },
        {
          "internalType": "string",
          "name": "symbol_",
          "type": "string"
        },
        {
          "internalType": "uint256",
          "name": "cap_",
          "type": "uint256"
        },
        {
          "internalType": "uint256",
          "name": "initSupply",
          "type": "uint256"
        }
      ],
      "name": "initialize",
      "outputs": [],
      "stateMutability": "nonpayable",
      "type": "function"
    },
    {
      "inputs": [
        {
          "internalType": "address",
          "name": "addr",
          "type": "address"
        }
      ],
      "name": "isRegistered",
      "outputs": [
        {
          "internalType": "bool",
          "name": "",
          "type": "bool"
        }
      ],
      "stateMutability": "view",
      "type": "function"
    },
    {
      "inputs": [
        {
          "internalType": "uint256",
          "name": "_num",
          "type": "uint256"
        }
      ],
      "name": "mintViaOwner",
      "outputs": [],
      "stateMutability": "nonpayable",
      "type": "function"
    },
    {
      "inputs": [],
      "name": "name",
      "outputs": [
        {
          "internalType": "string",
          "name": "",
          "type": "string"
        }
      ],
      "stateMutability": "view",
      "type": "function"
    },
    {
      "inputs": [],
      "name": "owner",
      "outputs": [
        {
          "internalType": "address",
          "name": "",
          "type": "address"
        }
      ],
      "stateMutability": "view",
      "type": "function"
    },
    {
      "inputs": [
        {
          "internalType": "address",
          "name": "_addr",
          "type": "address"
        }
      ],
      "name": "redeem",
      "outputs": [],
      "stateMutability": "nonpayable",
      "type": "function"
    },
    {
      "inputs": [],
      "name": "register",
      "outputs": [],
      "stateMutability": "payable",
      "type": "function"
    },
    {
      "inputs": [],
      "name": "renounceOwnership",
      "outputs": [],
      "stateMutability": "nonpayable",
      "type": "function"
    },
    {
      "inputs": [
        {
          "internalType": "address[]",
          "name": "_weeksLowEarners",
          "type": "address[]"
        },
        {
          "internalType": "address[]",
          "name": "_weeksMidEarners",
          "type": "address[]"
        },
        {
          "internalType": "address[]",
          "name": "_weeksHighEarners",
          "type": "address[]"
        }
      ],
      "name": "settleUp",
      "outputs": [],
      "stateMutability": "nonpayable",
      "type": "function"
    },
    {
      "inputs": [],
      "name": "symbol",
      "outputs": [
        {
          "internalType": "string",
          "name": "",
          "type": "string"
        }
      ],
      "stateMutability": "view",
      "type": "function"
    },
    {
      "inputs": [],
      "name": "totalSupply",
      "outputs": [
        {
          "internalType": "uint256",
          "name": "",
          "type": "uint256"
        }
      ],
      "stateMutability": "view",
      "type": "function"
    },
    {
      "inputs": [
        {
          "internalType": "address",
          "name": "to",
          "type": "address"
        },
        {
          "internalType": "uint256",
          "name": "amount",
          "type": "uint256"
        }
      ],
      "name": "transfer",
      "outputs": [
        {
          "internalType": "bool",
          "name": "",
          "type": "bool"
        }
      ],
      "stateMutability": "nonpayable",
      "type": "function"
    },
    {
      "inputs": [
        {
          "internalType": "address",
          "name": "from",
          "type": "address"
        },
        {
          "internalType": "address",
          "name": "to",
          "type": "address"
        },
        {
          "internalType": "uint256",
          "name": "amount",
          "type": "uint256"
        }
      ],
      "name": "transferFrom",
      "outputs": [
        {
          "internalType": "bool",
          "name": "",
          "type": "bool"
        }
      ],
      "stateMutability": "nonpayable",
      "type": "function"
    },
    {
      "inputs": [
        {
          "internalType": "address",
          "name": "newOwner",
          "type": "address"
        }
      ],
      "name": "transferOwnership",
      "outputs": [],
      "stateMutability": "nonpayable",
      "type": "function"
    },
    {
      "stateMutability": "payable",
      "type": "receive"
    }
  ],
  "bytecode": "0x608060405234801561001057600080fd5b506131f9806100206000396000f3fe60806040526004361061016a5760003560e01c80638a0a1831116100d1578063a9059cbb1161008a578063c6e76ebe11610064578063c6e76ebe14610573578063ce69e1d21461059e578063dd62ed3e146105c7578063f2fde38b1461060457610171565b8063a9059cbb146104bc578063afc0ed61146104f9578063c3c5a5471461053657610171565b80638a0a1831146103865780638da5cb5b146103c3578063937b4b34146103ee57806395a2251f1461042b57806395d89b4114610454578063a457c2d71461047f57610171565b8063355274ea11610123578063355274ea1461027857806339509351146102a35780636fe0e395146102e057806370a0823114610309578063715018a6146103465780637adc28131461035d57610171565b806306fdde0314610173578063095ea7b31461019e57806318160ddd146101db5780631aa3a0081461020657806323b872dd14610210578063313ce5671461024d57610171565b3661017157005b005b34801561017f57600080fd5b5061018861062d565b6040516101959190612897565b60405180910390f35b3480156101aa57600080fd5b506101c560048036038101906101c09190612414565b6106bf565b6040516101d2919061287c565b60405180910390f35b3480156101e757600080fd5b506101f06106e2565b6040516101fd9190612a99565b60405180910390f35b61020e6106ec565b005b34801561021c57600080fd5b50610237600480360381019061023291906123c5565b61089e565b604051610244919061287c565b60405180910390f35b34801561025957600080fd5b506102626108cd565b60405161026f9190612ab4565b60405180910390f35b34801561028457600080fd5b5061028d6108d6565b60405161029a9190612a99565b60405180910390f35b3480156102af57600080fd5b506102ca60048036038101906102c59190612414565b6108e0565b6040516102d7919061287c565b60405180910390f35b3480156102ec57600080fd5b50610307600480360381019061030291906124e7565b61098a565b005b34801561031557600080fd5b50610330600480360381019061032b9190612360565b610a97565b60405161033d9190612a99565b60405180910390f35b34801561035257600080fd5b5061035b610ae0565b005b34801561036957600080fd5b50610384600480360381019061037f919061257a565b610b68565b005b34801561039257600080fd5b506103ad60048036038101906103a891906125a3565b610bf1565b6040516103ba9190612a99565b60405180910390f35b3480156103cf57600080fd5b506103d8610c4c565b6040516103e59190612861565b60405180910390f35b3480156103fa57600080fd5b5061041560048036038101906104109190612360565b610c76565b6040516104229190612a99565b60405180910390f35b34801561043757600080fd5b50610452600480360381019061044d9190612360565b610d0d565b005b34801561046057600080fd5b50610469610df4565b6040516104769190612897565b60405180910390f35b34801561048b57600080fd5b506104a660048036038101906104a19190612414565b610e86565b6040516104b3919061287c565b60405180910390f35b3480156104c857600080fd5b506104e360048036038101906104de9190612414565b610f70565b6040516104f0919061287c565b60405180910390f35b34801561050557600080fd5b50610520600480360381019061051b9190612360565b610f93565b60405161052d9190612a99565b60405180910390f35b34801561054257600080fd5b5061055d60048036038101906105589190612360565b610fdf565b60405161056a919061287c565b60405180910390f35b34801561057f57600080fd5b50610588611038565b6040516105959190612a99565b60405180910390f35b3480156105aa57600080fd5b506105c560048036038101906105c09190612450565b611045565b005b3480156105d357600080fd5b506105ee60048036038101906105e99190612389565b6110d9565b6040516105fb9190612a99565b60405180910390f35b34801561061057600080fd5b5061062b60048036038101906106269190612360565b611160565b005b60606036805461063c90612c8e565b80601f016020809104026020016040519081016040528092919081815260200182805461066890612c8e565b80156106b55780601f1061068a576101008083540402835291602001916106b5565b820191906000526020600020905b81548152906001019060200180831161069857829003601f168201915b5050505050905090565b6000806106ca611258565b90506106d7818585611260565b600191505092915050565b6000603554905090565b633b9aca0034146106fc57600080fd5b6000151560cb60003373ffffffffffffffffffffffffffffffffffffffff1673ffffffffffffffffffffffffffffffffffffffff16815260200190815260200160002060020160009054906101000a900460ff16151514610792576040517f08c379a000000000000000000000000000000000000000000000000000000000815260040161078990612979565b60405180910390fd5b61079e3033600161142b565b600060405180608001604052803373ffffffffffffffffffffffffffffffffffffffff168152602001428152602001600115158152602001600181525090508060cb60003373ffffffffffffffffffffffffffffffffffffffff1673ffffffffffffffffffffffffffffffffffffffff16815260200190815260200160002060008201518160000160006101000a81548173ffffffffffffffffffffffffffffffffffffffff021916908373ffffffffffffffffffffffffffffffffffffffff1602179055506020820151816001015560408201518160020160006101000a81548160ff0219169083151502179055506060820151816003015590505050565b6000806108a9611258565b90506108b68582856116af565b6108c185858561142b565b60019150509392505050565b60006012905090565b6000606554905090565b6000806108eb611258565b905061097f818585603460008673ffffffffffffffffffffffffffffffffffffffff1673ffffffffffffffffffffffffffffffffffffffff16815260200190815260200160002060008973ffffffffffffffffffffffffffffffffffffffff1673ffffffffffffffffffffffffffffffffffffffff1681526020019081526020016000205461097a9190612b6d565b611260565b600191505092915050565b600060019054906101000a900460ff166109b25760008054906101000a900460ff16156109bb565b6109ba61173b565b5b6109fa576040517f08c379a00000000000000000000000000000000000000000000000000000000081526004016109f190612999565b60405180910390fd5b60008060019054906101000a900460ff161590508015610a4a576001600060016101000a81548160ff02191690831515021790555060016000806101000a81548160ff0219169083151502179055505b610a538361174c565b610a5d85856117a7565b610a65611804565b610a6f308361185d565b8015610a905760008060016101000a81548160ff0219169083151502179055505b5050505050565b6000603360008373ffffffffffffffffffffffffffffffffffffffff1673ffffffffffffffffffffffffffffffffffffffff168152602001908152602001600020549050919050565b610ae8611258565b73ffffffffffffffffffffffffffffffffffffffff16610b06610c4c565b73ffffffffffffffffffffffffffffffffffffffff1614610b5c576040517f08c379a0000000000000000000000000000000000000000000000000000000008152600401610b53906129b9565b60405180910390fd5b610b6660006118c7565b565b610b70611258565b73ffffffffffffffffffffffffffffffffffffffff16610b8e610c4c565b73ffffffffffffffffffffffffffffffffffffffff1614610be4576040517f08c379a0000000000000000000000000000000000000000000000000000000008152600401610bdb906129b9565b60405180910390fd5b610bee308261185d565b50565b600060ca600084815260200190815260200160002060008373ffffffffffffffffffffffffffffffffffffffff1673ffffffffffffffffffffffffffffffffffffffff16815260200190815260200160002054905092915050565b6000609860009054906101000a900473ffffffffffffffffffffffffffffffffffffffff16905090565b60008060cc805490509050600080600090505b82811015610d025760ca600082815260200190815260200160002060008673ffffffffffffffffffffffffffffffffffffffff1673ffffffffffffffffffffffffffffffffffffffff1681526020019081526020016000205482610ced9190612b6d565b91508080610cfa90612cf1565b915050610c89565b508092505050919050565b8073ffffffffffffffffffffffffffffffffffffffff163373ffffffffffffffffffffffffffffffffffffffff1614610d4557600080fd5b600060cb60008373ffffffffffffffffffffffffffffffffffffffff1673ffffffffffffffffffffffffffffffffffffffff1681526020019081526020016000206003015490508060cb60008473ffffffffffffffffffffffffffffffffffffffff1673ffffffffffffffffffffffffffffffffffffffff1681526020019081526020016000206003016000828254610dde9190612bc3565b92505081905550610df030838361142b565b5050565b606060378054610e0390612c8e565b80601f0160208091040260200160405190810160405280929190818152602001828054610e2f90612c8e565b8015610e7c5780601f10610e5157610100808354040283529160200191610e7c565b820191906000526020600020905b815481529060010190602001808311610e5f57829003601f168201915b5050505050905090565b600080610e91611258565b90506000603460008373ffffffffffffffffffffffffffffffffffffffff1673ffffffffffffffffffffffffffffffffffffffff16815260200190815260200160002060008673ffffffffffffffffffffffffffffffffffffffff1673ffffffffffffffffffffffffffffffffffffffff16815260200190815260200160002054905083811015610f57576040517f08c379a0000000000000000000000000000000000000000000000000000000008152600401610f4e90612a59565b60405180910390fd5b610f648286868403611260565b60019250505092915050565b600080610f7b611258565b9050610f8881858561142b565b600191505092915050565b600060cb60008373ffffffffffffffffffffffffffffffffffffffff1673ffffffffffffffffffffffffffffffffffffffff168152602001908152602001600020600301549050919050565b600060cb60008373ffffffffffffffffffffffffffffffffffffffff1673ffffffffffffffffffffffffffffffffffffffff16815260200190815260200160002060020160009054906101000a900460ff169050919050565b600060cc80549050905090565b61104d611258565b73ffffffffffffffffffffffffffffffffffffffff1661106b610c4c565b73ffffffffffffffffffffffffffffffffffffffff16146110c1576040517f08c379a00000000000000000000000000000000000000000000000000000000081526004016110b8906129b9565b60405180910390fd5b6110cc83838361198d565b6110d4611e21565b505050565b6000603460008473ffffffffffffffffffffffffffffffffffffffff1673ffffffffffffffffffffffffffffffffffffffff16815260200190815260200160002060008373ffffffffffffffffffffffffffffffffffffffff1673ffffffffffffffffffffffffffffffffffffffff16815260200190815260200160002054905092915050565b611168611258565b73ffffffffffffffffffffffffffffffffffffffff16611186610c4c565b73ffffffffffffffffffffffffffffffffffffffff16146111dc576040517f08c379a00000000000000000000000000000000000000000000000000000000081526004016111d3906129b9565b60405180910390fd5b600073ffffffffffffffffffffffffffffffffffffffff168173ffffffffffffffffffffffffffffffffffffffff16141561124c576040517f08c379a0000000000000000000000000000000000000000000000000000000008152600401611243906128f9565b60405180910390fd5b611255816118c7565b50565b600033905090565b600073ffffffffffffffffffffffffffffffffffffffff168373ffffffffffffffffffffffffffffffffffffffff1614156112d0576040517f08c379a00000000000000000000000000000000000000000000000000000000081526004016112c790612a19565b60405180910390fd5b600073ffffffffffffffffffffffffffffffffffffffff168273ffffffffffffffffffffffffffffffffffffffff161415611340576040517f08c379a000000000000000000000000000000000000000000000000000000000815260040161133790612919565b60405180910390fd5b80603460008573ffffffffffffffffffffffffffffffffffffffff1673ffffffffffffffffffffffffffffffffffffffff16815260200190815260200160002060008473ffffffffffffffffffffffffffffffffffffffff1673ffffffffffffffffffffffffffffffffffffffff168152602001908152602001600020819055508173ffffffffffffffffffffffffffffffffffffffff168373ffffffffffffffffffffffffffffffffffffffff167f8c5be1e5ebec7d5bd14f71427d1e84f3dd0314c0f7b2291e5b200ac8c7c3b9258360405161141e9190612a99565b60405180910390a3505050565b600073ffffffffffffffffffffffffffffffffffffffff168373ffffffffffffffffffffffffffffffffffffffff16141561149b576040517f08c379a0000000000000000000000000000000000000000000000000000000008152600401611492906129d9565b60405180910390fd5b600073ffffffffffffffffffffffffffffffffffffffff168273ffffffffffffffffffffffffffffffffffffffff16141561150b576040517f08c379a0000000000000000000000000000000000000000000000000000000008152600401611502906128b9565b60405180910390fd5b611516838383611e89565b6000603360008573ffffffffffffffffffffffffffffffffffffffff1673ffffffffffffffffffffffffffffffffffffffff1681526020019081526020016000205490508181101561159d576040517f08c379a000000000000000000000000000000000000000000000000000000000815260040161159490612959565b60405180910390fd5b818103603360008673ffffffffffffffffffffffffffffffffffffffff1673ffffffffffffffffffffffffffffffffffffffff1681526020019081526020016000208190555081603360008573ffffffffffffffffffffffffffffffffffffffff1673ffffffffffffffffffffffffffffffffffffffff16815260200190815260200160002060008282546116329190612b6d565b925050819055508273ffffffffffffffffffffffffffffffffffffffff168473ffffffffffffffffffffffffffffffffffffffff167fddf252ad1be2c89b69c2b068fc378daa952ba7f163c4a11628f55a4df523b3ef846040516116969190612a99565b60405180910390a36116a9848484611e8e565b50505050565b60006116bb84846110d9565b90507fffffffffffffffffffffffffffffffffffffffffffffffffffffffffffffffff81146117355781811015611727576040517f08c379a000000000000000000000000000000000000000000000000000000000815260040161171e90612939565b60405180910390fd5b6117348484848403611260565b5b50505050565b600061174630611e93565b15905090565b600060019054906101000a900460ff1661179b576040517f08c379a000000000000000000000000000000000000000000000000000000000815260040161179290612a39565b60405180910390fd5b6117a481611eb6565b50565b600060019054906101000a900460ff166117f6576040517f08c379a00000000000000000000000000000000000000000000000000000000081526004016117ed90612a39565b60405180910390fd5b6118008282611f52565b5050565b600060019054906101000a900460ff16611853576040517f08c379a000000000000000000000000000000000000000000000000000000000815260040161184a90612a39565b60405180910390fd5b61185b611fd3565b565b6118656108d6565b8161186e6106e2565b6118789190612b6d565b11156118b9576040517f08c379a00000000000000000000000000000000000000000000000000000000081526004016118b0906129f9565b60405180910390fd5b6118c38282612034565b5050565b6000609860009054906101000a900473ffffffffffffffffffffffffffffffffffffffff16905081609860006101000a81548173ffffffffffffffffffffffffffffffffffffffff021916908373ffffffffffffffffffffffffffffffffffffffff1602179055508173ffffffffffffffffffffffffffffffffffffffff168173ffffffffffffffffffffffffffffffffffffffff167f8be0079c531659141344cd1fd0a4f28419497f9722a3daafe3b4186f6b6457e060405160405180910390a35050565b6000805b8451811015611af157600160ca600060cc80549050815260200190815260200160002060008784815181106119ef577f4e487b7100000000000000000000000000000000000000000000000000000000600052603260045260246000fd5b602002602001015173ffffffffffffffffffffffffffffffffffffffff1673ffffffffffffffffffffffffffffffffffffffff16815260200190815260200160002081905550600160cb6000878481518110611a74577f4e487b7100000000000000000000000000000000000000000000000000000000600052603260045260246000fd5b602002602001015173ffffffffffffffffffffffffffffffffffffffff1673ffffffffffffffffffffffffffffffffffffffff1681526020019081526020016000206003016000828254611ac89190612b6d565b92505081905550600182611adc9190612b6d565b91508080611ae990612cf1565b915050611991565b5060005b8351811015611c5557600260ca600060cc8054905081526020019081526020016000206000868481518110611b53577f4e487b7100000000000000000000000000000000000000000000000000000000600052603260045260246000fd5b602002602001015173ffffffffffffffffffffffffffffffffffffffff1673ffffffffffffffffffffffffffffffffffffffff16815260200190815260200160002081905550600260cb6000868481518110611bd8577f4e487b7100000000000000000000000000000000000000000000000000000000600052603260045260246000fd5b602002602001015173ffffffffffffffffffffffffffffffffffffffff1673ffffffffffffffffffffffffffffffffffffffff1681526020019081526020016000206003016000828254611c2c9190612b6d565b92505081905550600282611c409190612b6d565b91508080611c4d90612cf1565b915050611af5565b5060005b8251811015611db957600360ca600060cc8054905081526020019081526020016000206000858481518110611cb7577f4e487b7100000000000000000000000000000000000000000000000000000000600052603260045260246000fd5b602002602001015173ffffffffffffffffffffffffffffffffffffffff1673ffffffffffffffffffffffffffffffffffffffff16815260200190815260200160002081905550600360cb6000858481518110611d3c577f4e487b7100000000000000000000000000000000000000000000000000000000600052603260045260246000fd5b602002602001015173ffffffffffffffffffffffffffffffffffffffff1673ffffffffffffffffffffffffffffffffffffffff1681526020019081526020016000206003016000828254611d909190612b6d565b92505081905550600382611da49190612b6d565b91508080611db190612cf1565b915050611c59565b506000604051806040016040528060cc80549050815260200183815250905060cc819080600181540180825580915050600190039060005260206000209060020201600090919091909150600082015181600001556020820151816001015550505050505050565b611e873060cc600160cc80549050611e399190612bc3565b81548110611e70577f4e487b7100000000000000000000000000000000000000000000000000000000600052603260045260246000fd5b90600052602060002090600202016001015461185d565b565b505050565b505050565b6000808273ffffffffffffffffffffffffffffffffffffffff163b119050919050565b600060019054906101000a900460ff16611f05576040517f08c379a0000000000000000000000000000000000000000000000000000000008152600401611efc90612a39565b60405180910390fd5b60008111611f48576040517f08c379a0000000000000000000000000000000000000000000000000000000008152600401611f3f906128d9565b60405180910390fd5b8060658190555050565b600060019054906101000a900460ff16611fa1576040517f08c379a0000000000000000000000000000000000000000000000000000000008152600401611f9890612a39565b60405180910390fd5b8160369080519060200190611fb7929190612195565b508060379080519060200190611fce929190612195565b505050565b600060019054906101000a900460ff16612022576040517f08c379a000000000000000000000000000000000000000000000000000000000815260040161201990612a39565b60405180910390fd5b61203261202d611258565b6118c7565b565b600073ffffffffffffffffffffffffffffffffffffffff168273ffffffffffffffffffffffffffffffffffffffff1614156120a4576040517f08c379a000000000000000000000000000000000000000000000000000000000815260040161209b90612a79565b60405180910390fd5b6120b060008383611e89565b80603560008282546120c29190612b6d565b9250508190555080603360008473ffffffffffffffffffffffffffffffffffffffff1673ffffffffffffffffffffffffffffffffffffffff16815260200190815260200160002060008282546121189190612b6d565b925050819055508173ffffffffffffffffffffffffffffffffffffffff16600073ffffffffffffffffffffffffffffffffffffffff167fddf252ad1be2c89b69c2b068fc378daa952ba7f163c4a11628f55a4df523b3ef8360405161217d9190612a99565b60405180910390a361219160008383611e8e565b5050565b8280546121a190612c8e565b90600052602060002090601f0160209004810192826121c3576000855561220a565b82601f106121dc57805160ff191683800117855561220a565b8280016001018555821561220a579182015b828111156122095782518255916020019190600101906121ee565b5b509050612217919061221b565b5090565b5b8082111561223457600081600090555060010161221c565b5090565b600061224b61224684612af4565b612acf565b9050808382526020820190508285602086028201111561226a57600080fd5b60005b8581101561229a578161228088826122e2565b84526020840193506020830192505060018101905061226d565b5050509392505050565b60006122b76122b284612b20565b612acf565b9050828152602081018484840111156122cf57600080fd5b6122da848285612c4c565b509392505050565b6000813590506122f181613195565b92915050565b600082601f83011261230857600080fd5b8135612318848260208601612238565b91505092915050565b600082601f83011261233257600080fd5b81356123428482602086016122a4565b91505092915050565b60008135905061235a816131ac565b92915050565b60006020828403121561237257600080fd5b6000612380848285016122e2565b91505092915050565b6000806040838503121561239c57600080fd5b60006123aa858286016122e2565b92505060206123bb858286016122e2565b9150509250929050565b6000806000606084860312156123da57600080fd5b60006123e8868287016122e2565b93505060206123f9868287016122e2565b925050604061240a8682870161234b565b9150509250925092565b6000806040838503121561242757600080fd5b6000612435858286016122e2565b92505060206124468582860161234b565b9150509250929050565b60008060006060848603121561246557600080fd5b600084013567ffffffffffffffff81111561247f57600080fd5b61248b868287016122f7565b935050602084013567ffffffffffffffff8111156124a857600080fd5b6124b4868287016122f7565b925050604084013567ffffffffffffffff8111156124d157600080fd5b6124dd868287016122f7565b9150509250925092565b600080600080608085870312156124fd57600080fd5b600085013567ffffffffffffffff81111561251757600080fd5b61252387828801612321565b945050602085013567ffffffffffffffff81111561254057600080fd5b61254c87828801612321565b935050604061255d8782880161234b565b925050606061256e8782880161234b565b91505092959194509250565b60006020828403121561258c57600080fd5b600061259a8482850161234b565b91505092915050565b600080604083850312156125b657600080fd5b60006125c48582860161234b565b92505060206125d5858286016122e2565b9150509250929050565b6125e881612bf7565b82525050565b6125f781612c09565b82525050565b600061260882612b51565b6126128185612b5c565b9350612622818560208601612c5b565b61262b81612dc7565b840191505092915050565b6000612643602383612b5c565b915061264e82612dd8565b604082019050919050565b6000612666601583612b5c565b915061267182612e27565b602082019050919050565b6000612689602683612b5c565b915061269482612e50565b604082019050919050565b60006126ac602283612b5c565b91506126b782612e9f565b604082019050919050565b60006126cf601d83612b5c565b91506126da82612eee565b602082019050919050565b60006126f2602683612b5c565b91506126fd82612f17565b604082019050919050565b6000612715601b83612b5c565b915061272082612f66565b602082019050919050565b6000612738602e83612b5c565b915061274382612f8f565b604082019050919050565b600061275b602083612b5c565b915061276682612fde565b602082019050919050565b600061277e602583612b5c565b915061278982613007565b604082019050919050565b60006127a1601983612b5c565b91506127ac82613056565b602082019050919050565b60006127c4602483612b5c565b91506127cf8261307f565b604082019050919050565b60006127e7602b83612b5c565b91506127f2826130ce565b604082019050919050565b600061280a602583612b5c565b91506128158261311d565b604082019050919050565b600061282d601f83612b5c565b91506128388261316c565b602082019050919050565b61284c81612c35565b82525050565b61285b81612c3f565b82525050565b600060208201905061287660008301846125df565b92915050565b600060208201905061289160008301846125ee565b92915050565b600060208201905081810360008301526128b181846125fd565b905092915050565b600060208201905081810360008301526128d281612636565b9050919050565b600060208201905081810360008301526128f281612659565b9050919050565b600060208201905081810360008301526129128161267c565b9050919050565b600060208201905081810360008301526129328161269f565b9050919050565b60006020820190508181036000830152612952816126c2565b9050919050565b60006020820190508181036000830152612972816126e5565b9050919050565b6000602082019050818103600083015261299281612708565b9050919050565b600060208201905081810360008301526129b28161272b565b9050919050565b600060208201905081810360008301526129d28161274e565b9050919050565b600060208201905081810360008301526129f281612771565b9050919050565b60006020820190508181036000830152612a1281612794565b9050919050565b60006020820190508181036000830152612a32816127b7565b9050919050565b60006020820190508181036000830152612a52816127da565b9050919050565b60006020820190508181036000830152612a72816127fd565b9050919050565b60006020820190508181036000830152612a9281612820565b9050919050565b6000602082019050612aae6000830184612843565b92915050565b6000602082019050612ac96000830184612852565b92915050565b6000612ad9612aea565b9050612ae58282612cc0565b919050565b6000604051905090565b600067ffffffffffffffff821115612b0f57612b0e612d98565b5b602082029050602081019050919050565b600067ffffffffffffffff821115612b3b57612b3a612d98565b5b612b4482612dc7565b9050602081019050919050565b600081519050919050565b600082825260208201905092915050565b6000612b7882612c35565b9150612b8383612c35565b9250827fffffffffffffffffffffffffffffffffffffffffffffffffffffffffffffffff03821115612bb857612bb7612d3a565b5b828201905092915050565b6000612bce82612c35565b9150612bd983612c35565b925082821015612bec57612beb612d3a565b5b828203905092915050565b6000612c0282612c15565b9050919050565b60008115159050919050565b600073ffffffffffffffffffffffffffffffffffffffff82169050919050565b6000819050919050565b600060ff82169050919050565b82818337600083830152505050565b60005b83811015612c79578082015181840152602081019050612c5e565b83811115612c88576000848401525b50505050565b60006002820490506001821680612ca657607f821691505b60208210811415612cba57612cb9612d69565b5b50919050565b612cc982612dc7565b810181811067ffffffffffffffff82111715612ce857612ce7612d98565b5b80604052505050565b6000612cfc82612c35565b91507fffffffffffffffffffffffffffffffffffffffffffffffffffffffffffffffff821415612d2f57612d2e612d3a565b5b600182019050919050565b7f4e487b7100000000000000000000000000000000000000000000000000000000600052601160045260246000fd5b7f4e487b7100000000000000000000000000000000000000000000000000000000600052602260045260246000fd5b7f4e487b7100000000000000000000000000000000000000000000000000000000600052604160045260246000fd5b6000601f19601f8301169050919050565b7f45524332303a207472616e7366657220746f20746865207a65726f206164647260008201527f6573730000000000000000000000000000000000000000000000000000000000602082015250565b7f45524332304361707065643a2063617020697320300000000000000000000000600082015250565b7f4f776e61626c653a206e6577206f776e657220697320746865207a65726f206160008201527f6464726573730000000000000000000000000000000000000000000000000000602082015250565b7f45524332303a20617070726f766520746f20746865207a65726f20616464726560008201527f7373000000000000000000000000000000000000000000000000000000000000602082015250565b7f45524332303a20696e73756666696369656e7420616c6c6f77616e6365000000600082015250565b7f45524332303a207472616e7366657220616d6f756e742065786365656473206260008201527f616c616e63650000000000000000000000000000000000000000000000000000602082015250565b7f4163636f756e7420616c72656164792072656769737465726564210000000000600082015250565b7f496e697469616c697a61626c653a20636f6e747261637420697320616c72656160008201527f647920696e697469616c697a6564000000000000000000000000000000000000602082015250565b7f4f776e61626c653a2063616c6c6572206973206e6f7420746865206f776e6572600082015250565b7f45524332303a207472616e736665722066726f6d20746865207a65726f20616460008201527f6472657373000000000000000000000000000000000000000000000000000000602082015250565b7f45524332304361707065643a2063617020657863656564656400000000000000600082015250565b7f45524332303a20617070726f76652066726f6d20746865207a65726f2061646460008201527f7265737300000000000000000000000000000000000000000000000000000000602082015250565b7f496e697469616c697a61626c653a20636f6e7472616374206973206e6f74206960008201527f6e697469616c697a696e67000000000000000000000000000000000000000000602082015250565b7f45524332303a2064656372656173656420616c6c6f77616e63652062656c6f7760008201527f207a65726f000000000000000000000000000000000000000000000000000000602082015250565b7f45524332303a206d696e7420746f20746865207a65726f206164647265737300600082015250565b61319e81612bf7565b81146131a957600080fd5b50565b6131b581612c35565b81146131c057600080fd5b5056fea2646970667358221220ed691df86b94aceb6292bc012614fcc09c65a09632d7af7ceff68e15e083ec9a64736f6c63430008040033",
  "linkReferences": {},
  "deployedLinkReferences": {}
}