{
  "_format": "hh-sol-artifact-1",
  "contractName": "AnemonethV1",
  "sourceName": "contracts/anemonethV1.sol",
  "abi": [
    {
      "anonymous": false,
      "inputs": [
        {
          "indexed": true,
          "internalType": "address",
          "name": "owner",
          "type": "address"
        },
        {
          "indexed": true,
          "internalType": "address",
          "name": "spender",
          "type": "address"
        },
        {
          "indexed": false,
          "internalType": "uint256",
          "name": "value",
          "type": "uint256"
        }
      ],
      "name": "Approval",
      "type": "event"
    },
    {
      "anonymous": false,
      "inputs": [
        {
          "indexed": true,
          "internalType": "address",
          "name": "previousOwner",
          "type": "address"
        },
        {
          "indexed": true,
          "internalType": "address",
          "name": "newOwner",
          "type": "address"
        }
      ],
      "name": "OwnershipTransferred",
      "type": "event"
    },
    {
      "anonymous": false,
      "inputs": [
        {
          "indexed": true,
          "internalType": "address",
          "name": "from",
          "type": "address"
        },
        {
          "indexed": true,
          "internalType": "address",
          "name": "to",
          "type": "address"
        },
        {
          "indexed": false,
          "internalType": "uint256",
          "name": "value",
          "type": "uint256"
        }
      ],
      "name": "Transfer",
      "type": "event"
    },
    {
      "stateMutability": "payable",
      "type": "fallback"
    },
    {
      "inputs": [
        {
          "internalType": "address",
          "name": "owner",
          "type": "address"
        },
        {
          "internalType": "address",
          "name": "spender",
          "type": "address"
        }
      ],
      "name": "allowance",
      "outputs": [
        {
          "internalType": "uint256",
          "name": "",
          "type": "uint256"
        }
      ],
      "stateMutability": "view",
      "type": "function"
    },
    {
      "inputs": [
        {
          "internalType": "address",
          "name": "spender",
          "type": "address"
        },
        {
          "internalType": "uint256",
          "name": "amount",
          "type": "uint256"
        }
      ],
      "name": "approve",
      "outputs": [
        {
          "internalType": "bool",
          "name": "",
          "type": "bool"
        }
      ],
      "stateMutability": "nonpayable",
      "type": "function"
    },
    {
      "inputs": [
        {
          "internalType": "address",
          "name": "account",
          "type": "address"
        }
      ],
      "name": "balanceOf",
      "outputs": [
        {
          "internalType": "uint256",
          "name": "",
          "type": "uint256"
        }
      ],
      "stateMutability": "view",
      "type": "function"
    },
    {
      "inputs": [],
      "name": "cap",
      "outputs": [
        {
          "internalType": "uint256",
          "name": "",
          "type": "uint256"
        }
      ],
      "stateMutability": "view",
      "type": "function"
    },
    {
      "inputs": [],
      "name": "decimals",
      "outputs": [
        {
          "internalType": "uint8",
          "name": "",
          "type": "uint8"
        }
      ],
      "stateMutability": "view",
      "type": "function"
    },
    {
      "inputs": [
        {
          "internalType": "address",
          "name": "spender",
          "type": "address"
        },
        {
          "internalType": "uint256",
          "name": "subtractedValue",
          "type": "uint256"
        }
      ],
      "name": "decreaseAllowance",
      "outputs": [
        {
          "internalType": "bool",
          "name": "",
          "type": "bool"
        }
      ],
      "stateMutability": "nonpayable",
      "type": "function"
    },
    {
      "inputs": [],
      "name": "getBalance",
      "outputs": [
        {
          "internalType": "uint256",
          "name": "",
          "type": "uint256"
        }
      ],
      "stateMutability": "view",
      "type": "function"
    },
    {
      "inputs": [],
      "name": "getCurrRedeemable",
      "outputs": [
        {
          "internalType": "uint256",
          "name": "",
          "type": "uint256"
        }
      ],
      "stateMutability": "view",
      "type": "function"
    },
    {
      "inputs": [
        {
          "internalType": "uint256",
          "name": "_week",
          "type": "uint256"
        },
        {
          "internalType": "address",
          "name": "_addr",
          "type": "address"
        }
      ],
      "name": "getHistoricalEarningsWeek",
      "outputs": [
        {
          "internalType": "uint256",
          "name": "",
          "type": "uint256"
        }
      ],
      "stateMutability": "view",
      "type": "function"
    },
    {
      "inputs": [
        {
          "internalType": "address",
          "name": "_addr",
          "type": "address"
        }
      ],
      "name": "getLastWeekNumberRedeemed",
      "outputs": [
        {
          "internalType": "uint256",
          "name": "",
          "type": "uint256"
        }
      ],
      "stateMutability": "view",
      "type": "function"
    },
    {
      "inputs": [],
      "name": "getWeekCount",
      "outputs": [
        {
          "internalType": "uint256",
          "name": "",
          "type": "uint256"
        }
      ],
      "stateMutability": "view",
      "type": "function"
    },
    {
      "inputs": [
        {
          "internalType": "uint256",
          "name": "_week",
          "type": "uint256"
        },
        {
          "internalType": "address",
          "name": "_addr",
          "type": "address"
        }
      ],
      "name": "gethistoricalEarnings",
      "outputs": [
        {
          "internalType": "uint256",
          "name": "",
          "type": "uint256"
        }
      ],
      "stateMutability": "view",
      "type": "function"
    },
    {
      "inputs": [
        {
          "internalType": "address",
          "name": "spender",
          "type": "address"
        },
        {
          "internalType": "uint256",
          "name": "addedValue",
          "type": "uint256"
        }
      ],
      "name": "increaseAllowance",
      "outputs": [
        {
          "internalType": "bool",
          "name": "",
          "type": "bool"
        }
      ],
      "stateMutability": "nonpayable",
      "type": "function"
    },
    {
      "inputs": [
        {
          "internalType": "string",
          "name": "name_",
          "type": "string"
        },
        {
          "internalType": "string",
          "name": "symbol_",
          "type": "string"
        },
        {
          "internalType": "uint256",
          "name": "cap_",
          "type": "uint256"
        },
        {
          "internalType": "uint256",
          "name": "initSupply",
          "type": "uint256"
        },
        {
          "internalType": "bool",
          "name": "_oneSpecial",
          "type": "bool"
        },
        {
          "internalType": "bool",
          "name": "_fiveSpecial",
          "type": "bool"
        }
      ],
      "name": "initialize",
      "outputs": [],
      "stateMutability": "nonpayable",
      "type": "function"
    },
    {
      "inputs": [
        {
          "internalType": "address",
          "name": "addr",
          "type": "address"
        }
      ],
      "name": "isRegistered",
      "outputs": [
        {
          "internalType": "bool",
          "name": "",
          "type": "bool"
        }
      ],
      "stateMutability": "view",
      "type": "function"
    },
    {
      "inputs": [
        {
          "internalType": "uint256",
          "name": "_num",
          "type": "uint256"
        }
      ],
      "name": "mintViaOwner",
      "outputs": [],
      "stateMutability": "nonpayable",
      "type": "function"
    },
    {
      "inputs": [],
      "name": "name",
      "outputs": [
        {
          "internalType": "string",
          "name": "",
          "type": "string"
        }
      ],
      "stateMutability": "view",
      "type": "function"
    },
    {
      "inputs": [],
      "name": "owner",
      "outputs": [
        {
          "internalType": "address",
          "name": "",
          "type": "address"
        }
      ],
      "stateMutability": "view",
      "type": "function"
    },
    {
      "inputs": [],
      "name": "redeem",
      "outputs": [],
      "stateMutability": "payable",
      "type": "function"
    },
    {
      "inputs": [],
      "name": "register",
      "outputs": [],
      "stateMutability": "payable",
      "type": "function"
    },
    {
      "inputs": [],
      "name": "renounceOwnership",
      "outputs": [],
      "stateMutability": "nonpayable",
      "type": "function"
    },
    {
      "inputs": [],
      "name": "symbol",
      "outputs": [
        {
          "internalType": "string",
          "name": "",
          "type": "string"
        }
      ],
      "stateMutability": "view",
      "type": "function"
    },
    {
      "inputs": [],
      "name": "toggleFiveSpecial",
      "outputs": [],
      "stateMutability": "nonpayable",
      "type": "function"
    },
    {
      "inputs": [],
      "name": "toggleOneSpecial",
      "outputs": [],
      "stateMutability": "nonpayable",
      "type": "function"
    },
    {
      "inputs": [],
      "name": "totalSupply",
      "outputs": [
        {
          "internalType": "uint256",
          "name": "",
          "type": "uint256"
        }
      ],
      "stateMutability": "view",
      "type": "function"
    },
    {
      "inputs": [
        {
          "internalType": "address",
          "name": "to",
          "type": "address"
        },
        {
          "internalType": "uint256",
          "name": "amount",
          "type": "uint256"
        }
      ],
      "name": "transfer",
      "outputs": [
        {
          "internalType": "bool",
          "name": "",
          "type": "bool"
        }
      ],
      "stateMutability": "nonpayable",
      "type": "function"
    },
    {
      "inputs": [
        {
          "internalType": "address",
          "name": "from",
          "type": "address"
        },
        {
          "internalType": "address",
          "name": "to",
          "type": "address"
        },
        {
          "internalType": "uint256",
          "name": "amount",
          "type": "uint256"
        }
      ],
      "name": "transferFrom",
      "outputs": [
        {
          "internalType": "bool",
          "name": "",
          "type": "bool"
        }
      ],
      "stateMutability": "nonpayable",
      "type": "function"
    },
    {
      "inputs": [
        {
          "internalType": "address",
          "name": "newOwner",
          "type": "address"
        }
      ],
      "name": "transferOwnership",
      "outputs": [],
      "stateMutability": "nonpayable",
      "type": "function"
    },
    {
      "inputs": [
        {
          "internalType": "address[]",
          "name": "_weeksLowEarners",
          "type": "address[]"
        },
        {
          "internalType": "address[]",
          "name": "_weeksMidEarners",
          "type": "address[]"
        },
        {
          "internalType": "address[]",
          "name": "_weeksHighEarners",
          "type": "address[]"
        }
      ],
      "name": "weeklyEarnings",
      "outputs": [],
      "stateMutability": "nonpayable",
      "type": "function"
    },
    {
      "inputs": [
        {
          "internalType": "address payable",
          "name": "_owner",
          "type": "address"
        }
      ],
      "name": "withdraw",
      "outputs": [],
      "stateMutability": "payable",
      "type": "function"
    },
    {
      "stateMutability": "payable",
      "type": "receive"
    }
  ],
  "bytecode": "0x608060405234801561001057600080fd5b50613b93806100206000396000f3fe6080604052600436106101d15760003560e01c8063715018a6116100f7578063a8a61bb311610095578063c3c5a54711610064578063c3c5a54714610647578063c6e76ebe14610684578063dd62ed3e146106af578063f2fde38b146106ec576101d8565b8063a8a61bb314610598578063a9059cbb146105d5578063abceabf514610612578063be040fb01461063d576101d8565b80638a0a1831116100d15780638a0a1831146104c85780638da5cb5b1461050557806395d89b4114610530578063a457c2d71461055b576101d8565b8063715018a61461045f57806379c4c87b146104765780637adc28131461049f576101d8565b8063313ce5671161016f57806358bc41901161013e57806358bc4190146103cb5780636b519231146103f45780636c2e46041461040b57806370a0823114610422576101d8565b8063313ce5671461031c578063355274ea14610347578063395093511461037257806351cff8d9146103af576101d8565b806318160ddd116101ab57806318160ddd1461026d5780631aa3a0081461029857806323b872dd146102a25780632ae2eb93146102df576101d8565b806306fdde03146101da578063095ea7b31461020557806312065fe014610242576101d8565b366101d857005b005b3480156101e657600080fd5b506101ef610715565b6040516101fc9190612fa6565b60405180910390f35b34801561021157600080fd5b5061022c60048036038101906102279190612ada565b6107a7565b6040516102399190612f8b565b60405180910390f35b34801561024e57600080fd5b506102576107ca565b60405161026491906131c8565b60405180910390f35b34801561027957600080fd5b5061028261084e565b60405161028f91906131c8565b60405180910390f35b6102a0610858565b005b3480156102ae57600080fd5b506102c960048036038101906102c49190612a8b565b610a71565b6040516102d69190612f8b565b60405180910390f35b3480156102eb57600080fd5b5061030660048036038101906103019190612c8f565b610aa0565b60405161031391906131c8565b60405180910390f35b34801561032857600080fd5b50610331610afb565b60405161033e91906131e3565b60405180910390f35b34801561035357600080fd5b5061035c610b04565b60405161036991906131c8565b60405180910390f35b34801561037e57600080fd5b5061039960048036038101906103949190612ada565b610b0e565b6040516103a69190612f8b565b60405180910390f35b6103c960048036038101906103c49190612a26565b610bb8565b005b3480156103d757600080fd5b506103f260048036038101906103ed9190612bad565b610c7e565b005b34801561040057600080fd5b50610409610e1b565b005b34801561041757600080fd5b50610420610ec3565b005b34801561042e57600080fd5b50610449600480360381019061044491906129fd565b610f6b565b60405161045691906131c8565b60405180910390f35b34801561046b57600080fd5b50610474610fb4565b005b34801561048257600080fd5b5061049d60048036038101906104989190612b16565b61103c565b005b3480156104ab57600080fd5b506104c660048036038101906104c19190612c66565b611395565b005b3480156104d457600080fd5b506104ef60048036038101906104ea9190612c8f565b611436565b6040516104fc91906131c8565b60405180910390f35b34801561051157600080fd5b5061051a611491565b6040516105279190612f70565b60405180910390f35b34801561053c57600080fd5b506105456114bb565b6040516105529190612fa6565b60405180910390f35b34801561056757600080fd5b50610582600480360381019061057d9190612ada565b61154d565b60405161058f9190612f8b565b60405180910390f35b3480156105a457600080fd5b506105bf60048036038101906105ba91906129fd565b611637565b6040516105cc91906131c8565b60405180910390f35b3480156105e157600080fd5b506105fc60048036038101906105f79190612ada565b611683565b6040516106099190612f8b565b60405180910390f35b34801561061e57600080fd5b506106276116a6565b60405161063491906131c8565b60405180910390f35b61064561190e565b005b34801561065357600080fd5b5061066e600480360381019061066991906129fd565b611be2565b60405161067b9190612f8b565b60405180910390f35b34801561069057600080fd5b50610699611c3b565b6040516106a691906131c8565b60405180910390f35b3480156106bb57600080fd5b506106d660048036038101906106d19190612a4f565b611c48565b6040516106e391906131c8565b60405180910390f35b3480156106f857600080fd5b50610713600480360381019061070e91906129fd565b611ccf565b005b606060368054610724906135c4565b80601f0160208091040260200160405190810160405280929190818152602001828054610750906135c4565b801561079d5780601f106107725761010080835404028352916020019161079d565b820191906000526020600020905b81548152906001019060200180831161078057829003601f168201915b5050505050905090565b6000806107b2611dc7565b90506107bf818585611dcf565b600191505092915050565b60006107d4611dc7565b73ffffffffffffffffffffffffffffffffffffffff166107f2611491565b73ffffffffffffffffffffffffffffffffffffffff1614610848576040517f08c379a000000000000000000000000000000000000000000000000000000000815260040161083f906130e8565b60405180910390fd5b47905090565b6000603554905090565b633b9aca00341461086857600080fd5b6000151560cb60003373ffffffffffffffffffffffffffffffffffffffff1673ffffffffffffffffffffffffffffffffffffffff16815260200190815260200160002060000160149054906101000a900460ff161515146108fe576040517f08c379a00000000000000000000000000000000000000000000000000000000081526004016108f590613088565b60405180910390fd5b6012600a61090c9190613345565b60016109189190613463565b60cc600060cd80549050815260200190815260200160002060003373ffffffffffffffffffffffffffffffffffffffff1673ffffffffffffffffffffffffffffffffffffffff16815260200190815260200160002081905550600060405180606001604052803373ffffffffffffffffffffffffffffffffffffffff168152602001600115158152602001600160cd805490506109b591906134bd565b81525090508060cb60003373ffffffffffffffffffffffffffffffffffffffff1673ffffffffffffffffffffffffffffffffffffffff16815260200190815260200160002060008201518160000160006101000a81548173ffffffffffffffffffffffffffffffffffffffff021916908373ffffffffffffffffffffffffffffffffffffffff16021790555060208201518160000160146101000a81548160ff0219169083151502179055506040820151816001015590505050565b600080610a7c611dc7565b9050610a89858285611f9a565b610a94858585612026565b60019150509392505050565b600060cc600084815260200190815260200160002060008373ffffffffffffffffffffffffffffffffffffffff1673ffffffffffffffffffffffffffffffffffffffff16815260200190815260200160002054905092915050565b60006012905090565b6000606554905090565b600080610b19611dc7565b9050610bad818585603460008673ffffffffffffffffffffffffffffffffffffffff1673ffffffffffffffffffffffffffffffffffffffff16815260200190815260200160002060008973ffffffffffffffffffffffffffffffffffffffff1673ffffffffffffffffffffffffffffffffffffffff16815260200190815260200160002054610ba8919061329c565b611dcf565b600191505092915050565b610bc0611dc7565b73ffffffffffffffffffffffffffffffffffffffff16610bde611491565b73ffffffffffffffffffffffffffffffffffffffff1614610c34576040517f08c379a0000000000000000000000000000000000000000000000000000000008152600401610c2b906130e8565b60405180910390fd5b8073ffffffffffffffffffffffffffffffffffffffff166108fc479081150290604051600060405180830381858888f19350505050158015610c7a573d6000803e3d6000fd5b5050565b600060019054906101000a900460ff16610ca65760008054906101000a900460ff1615610caf565b610cae6122aa565b5b610cee576040517f08c379a0000000000000000000000000000000000000000000000000000000008152600401610ce5906130a8565b60405180910390fd5b60008060019054906101000a900460ff161590508015610d3e576001600060016101000a81548160ff02191690831515021790555060016000806101000a81548160ff0219169083151502179055505b610d5f6012600a610d4f9190613345565b86610d5a9190613463565b6122bb565b610d698787612316565b610d71612373565b610d93306012600a610d839190613345565b86610d8e9190613463565b6123cc565b8260ca60006101000a81548160ff0219169083151502179055508160ca60016101000a81548160ff02191690831515021790555060cd600090806001815401808255809150506001900390600052602060002001600090919091909150558015610e125760008060016101000a81548160ff0219169083151502179055505b50505050505050565b610e23611dc7565b73ffffffffffffffffffffffffffffffffffffffff16610e41611491565b73ffffffffffffffffffffffffffffffffffffffff1614610e97576040517f08c379a0000000000000000000000000000000000000000000000000000000008152600401610e8e906130e8565b60405180910390fd5b60ca60009054906101000a900460ff161560ca60006101000a81548160ff021916908315150217905550565b610ecb611dc7565b73ffffffffffffffffffffffffffffffffffffffff16610ee9611491565b73ffffffffffffffffffffffffffffffffffffffff1614610f3f576040517f08c379a0000000000000000000000000000000000000000000000000000000008152600401610f36906130e8565b60405180910390fd5b60ca60019054906101000a900460ff161560ca60016101000a81548160ff021916908315150217905550565b6000603360008373ffffffffffffffffffffffffffffffffffffffff1673ffffffffffffffffffffffffffffffffffffffff168152602001908152602001600020549050919050565b610fbc611dc7565b73ffffffffffffffffffffffffffffffffffffffff16610fda611491565b73ffffffffffffffffffffffffffffffffffffffff1614611030576040517f08c379a0000000000000000000000000000000000000000000000000000000008152600401611027906130e8565b60405180910390fd5b61103a6000612436565b565b611044611dc7565b73ffffffffffffffffffffffffffffffffffffffff16611062611491565b73ffffffffffffffffffffffffffffffffffffffff16146110b8576040517f08c379a00000000000000000000000000000000000000000000000000000000081526004016110af906130e8565b60405180910390fd5b60005b835181101561119c576012600a6110d29190613345565b60016110de9190613463565b60cc600060cd8054905081526020019081526020016000206000868481518110611131577f4e487b7100000000000000000000000000000000000000000000000000000000600052603260045260246000fd5b602002602001015173ffffffffffffffffffffffffffffffffffffffff1673ffffffffffffffffffffffffffffffffffffffff1681526020019081526020016000206000828254611182919061329c565b92505081905550808061119490613627565b9150506110bb565b5060005b8251811015611281576012600a6111b79190613345565b60056111c39190613463565b60cc600060cd8054905081526020019081526020016000206000858481518110611216577f4e487b7100000000000000000000000000000000000000000000000000000000600052603260045260246000fd5b602002602001015173ffffffffffffffffffffffffffffffffffffffff1673ffffffffffffffffffffffffffffffffffffffff1681526020019081526020016000206000828254611267919061329c565b92505081905550808061127990613627565b9150506111a0565b5060005b8151811015611366576012600a61129c9190613345565b600a6112a89190613463565b60cc600060cd80549050815260200190815260200160002060008484815181106112fb577f4e487b7100000000000000000000000000000000000000000000000000000000600052603260045260246000fd5b602002602001015173ffffffffffffffffffffffffffffffffffffffff1673ffffffffffffffffffffffffffffffffffffffff168152602001908152602001600020600082825461134c919061329c565b92505081905550808061135e90613627565b915050611285565b5060cd429080600181540180825580915050600190039060005260206000200160009091909190915055505050565b61139d611dc7565b73ffffffffffffffffffffffffffffffffffffffff166113bb611491565b73ffffffffffffffffffffffffffffffffffffffff1614611411576040517f08c379a0000000000000000000000000000000000000000000000000000000008152600401611408906130e8565b60405180910390fd5b611433306012600a6114239190613345565b8361142e9190613463565b6123cc565b50565b600060cc600084815260200190815260200160002060008373ffffffffffffffffffffffffffffffffffffffff1673ffffffffffffffffffffffffffffffffffffffff16815260200190815260200160002054905092915050565b6000609860009054906101000a900473ffffffffffffffffffffffffffffffffffffffff16905090565b6060603780546114ca906135c4565b80601f01602080910402602001604051908101604052809291908181526020018280546114f6906135c4565b80156115435780601f1061151857610100808354040283529160200191611543565b820191906000526020600020905b81548152906001019060200180831161152657829003601f168201915b5050505050905090565b600080611558611dc7565b90506000603460008373ffffffffffffffffffffffffffffffffffffffff1673ffffffffffffffffffffffffffffffffffffffff16815260200190815260200160002060008673ffffffffffffffffffffffffffffffffffffffff1673ffffffffffffffffffffffffffffffffffffffff1681526020019081526020016000205490508381101561161e576040517f08c379a000000000000000000000000000000000000000000000000000000000815260040161161590613188565b60405180910390fd5b61162b8286868403611dcf565b60019250505092915050565b600060cb60008373ffffffffffffffffffffffffffffffffffffffff1673ffffffffffffffffffffffffffffffffffffffff168152602001908152602001600020600101549050919050565b60008061168e611dc7565b905061169b818585612026565b600191505092915050565b60006001151560cb60003373ffffffffffffffffffffffffffffffffffffffff1673ffffffffffffffffffffffffffffffffffffffff16815260200190815260200160002060000160149054906101000a900460ff1615151461170857600080fd5b60008060009050600160cb60003373ffffffffffffffffffffffffffffffffffffffff1673ffffffffffffffffffffffffffffffffffffffff1681526020019081526020016000206001015461175e919061329c565b60cd80549050116117a4576040517f08c379a000000000000000000000000000000000000000000000000000000000815260040161179b906130c8565b60405180910390fd5b60ca60009054906101000a900460ff16156117da576012600a6117c79190613345565b60016117d39190613463565b905061180d565b60ca60019054906101000a900460ff161561180c576012600a6117fd9190613345565b60056118099190613463565b90505b5b600060cd8054905090505b60cb60003373ffffffffffffffffffffffffffffffffffffffff1673ffffffffffffffffffffffffffffffffffffffff16815260200190815260200160002060010154811115611905578160cc600083815260200190815260200160002060003373ffffffffffffffffffffffffffffffffffffffff1673ffffffffffffffffffffffffffffffffffffffff168152602001908152602001600020546118be919061329c565b836118c9919061329c565b92506012600a6118d99190613345565b60016118e59190613463565b826118f0919061329c565b915080806118fd9061359a565b915050611818565b50819250505090565b6001151560cb60003373ffffffffffffffffffffffffffffffffffffffff1673ffffffffffffffffffffffffffffffffffffffff16815260200190815260200160002060000160149054906101000a900460ff1615151461196e57600080fd5b60008060009050600160cb60003373ffffffffffffffffffffffffffffffffffffffff1673ffffffffffffffffffffffffffffffffffffffff168152602001908152602001600020600101546119c4919061329c565b60cd8054905011611a0a576040517f08c379a0000000000000000000000000000000000000000000000000000000008152600401611a01906130c8565b60405180910390fd5b60ca60009054906101000a900460ff1615611a40576012600a611a2d9190613345565b6001611a399190613463565b9050611a73565b60ca60019054906101000a900460ff1615611a72576012600a611a639190613345565b6005611a6f9190613463565b90505b5b600060cd8054905090505b60cb60003373ffffffffffffffffffffffffffffffffffffffff1673ffffffffffffffffffffffffffffffffffffffff16815260200190815260200160002060010154811115611b6b578160cc600083815260200190815260200160002060003373ffffffffffffffffffffffffffffffffffffffff1673ffffffffffffffffffffffffffffffffffffffff16815260200190815260200160002054611b24919061329c565b83611b2f919061329c565b92506012600a611b3f9190613345565b6001611b4b9190613463565b82611b56919061329c565b91508080611b639061359a565b915050611a7e565b50633b9aca003414611b7c57600080fd5b611b8633836123cc565b600160cd80549050611b9891906134bd565b60cb60003373ffffffffffffffffffffffffffffffffffffffff1673ffffffffffffffffffffffffffffffffffffffff168152602001908152602001600020600101819055505050565b600060cb60008373ffffffffffffffffffffffffffffffffffffffff1673ffffffffffffffffffffffffffffffffffffffff16815260200190815260200160002060000160149054906101000a900460ff169050919050565b600060cd80549050905090565b6000603460008473ffffffffffffffffffffffffffffffffffffffff1673ffffffffffffffffffffffffffffffffffffffff16815260200190815260200160002060008373ffffffffffffffffffffffffffffffffffffffff1673ffffffffffffffffffffffffffffffffffffffff16815260200190815260200160002054905092915050565b611cd7611dc7565b73ffffffffffffffffffffffffffffffffffffffff16611cf5611491565b73ffffffffffffffffffffffffffffffffffffffff1614611d4b576040517f08c379a0000000000000000000000000000000000000000000000000000000008152600401611d42906130e8565b60405180910390fd5b600073ffffffffffffffffffffffffffffffffffffffff168173ffffffffffffffffffffffffffffffffffffffff161415611dbb576040517f08c379a0000000000000000000000000000000000000000000000000000000008152600401611db290613008565b60405180910390fd5b611dc481612436565b50565b600033905090565b600073ffffffffffffffffffffffffffffffffffffffff168373ffffffffffffffffffffffffffffffffffffffff161415611e3f576040517f08c379a0000000000000000000000000000000000000000000000000000000008152600401611e3690613148565b60405180910390fd5b600073ffffffffffffffffffffffffffffffffffffffff168273ffffffffffffffffffffffffffffffffffffffff161415611eaf576040517f08c379a0000000000000000000000000000000000000000000000000000000008152600401611ea690613028565b60405180910390fd5b80603460008573ffffffffffffffffffffffffffffffffffffffff1673ffffffffffffffffffffffffffffffffffffffff16815260200190815260200160002060008473ffffffffffffffffffffffffffffffffffffffff1673ffffffffffffffffffffffffffffffffffffffff168152602001908152602001600020819055508173ffffffffffffffffffffffffffffffffffffffff168373ffffffffffffffffffffffffffffffffffffffff167f8c5be1e5ebec7d5bd14f71427d1e84f3dd0314c0f7b2291e5b200ac8c7c3b92583604051611f8d91906131c8565b60405180910390a3505050565b6000611fa68484611c48565b90507fffffffffffffffffffffffffffffffffffffffffffffffffffffffffffffffff81146120205781811015612012576040517f08c379a000000000000000000000000000000000000000000000000000000000815260040161200990613048565b60405180910390fd5b61201f8484848403611dcf565b5b50505050565b600073ffffffffffffffffffffffffffffffffffffffff168373ffffffffffffffffffffffffffffffffffffffff161415612096576040517f08c379a000000000000000000000000000000000000000000000000000000000815260040161208d90613108565b60405180910390fd5b600073ffffffffffffffffffffffffffffffffffffffff168273ffffffffffffffffffffffffffffffffffffffff161415612106576040517f08c379a00000000000000000000000000000000000000000000000000000000081526004016120fd90612fc8565b60405180910390fd5b6121118383836124fc565b6000603360008573ffffffffffffffffffffffffffffffffffffffff1673ffffffffffffffffffffffffffffffffffffffff16815260200190815260200160002054905081811015612198576040517f08c379a000000000000000000000000000000000000000000000000000000000815260040161218f90613068565b60405180910390fd5b818103603360008673ffffffffffffffffffffffffffffffffffffffff1673ffffffffffffffffffffffffffffffffffffffff1681526020019081526020016000208190555081603360008573ffffffffffffffffffffffffffffffffffffffff1673ffffffffffffffffffffffffffffffffffffffff168152602001908152602001600020600082825461222d919061329c565b925050819055508273ffffffffffffffffffffffffffffffffffffffff168473ffffffffffffffffffffffffffffffffffffffff167fddf252ad1be2c89b69c2b068fc378daa952ba7f163c4a11628f55a4df523b3ef8460405161229191906131c8565b60405180910390a36122a4848484612501565b50505050565b60006122b530612506565b15905090565b600060019054906101000a900460ff1661230a576040517f08c379a000000000000000000000000000000000000000000000000000000000815260040161230190613168565b60405180910390fd5b61231381612529565b50565b600060019054906101000a900460ff16612365576040517f08c379a000000000000000000000000000000000000000000000000000000000815260040161235c90613168565b60405180910390fd5b61236f82826125c5565b5050565b600060019054906101000a900460ff166123c2576040517f08c379a00000000000000000000000000000000000000000000000000000000081526004016123b990613168565b60405180910390fd5b6123ca612646565b565b6123d4610b04565b816123dd61084e565b6123e7919061329c565b1115612428576040517f08c379a000000000000000000000000000000000000000000000000000000000815260040161241f90613128565b60405180910390fd5b61243282826126a7565b5050565b6000609860009054906101000a900473ffffffffffffffffffffffffffffffffffffffff16905081609860006101000a81548173ffffffffffffffffffffffffffffffffffffffff021916908373ffffffffffffffffffffffffffffffffffffffff1602179055508173ffffffffffffffffffffffffffffffffffffffff168173ffffffffffffffffffffffffffffffffffffffff167f8be0079c531659141344cd1fd0a4f28419497f9722a3daafe3b4186f6b6457e060405160405180910390a35050565b505050565b505050565b6000808273ffffffffffffffffffffffffffffffffffffffff163b119050919050565b600060019054906101000a900460ff16612578576040517f08c379a000000000000000000000000000000000000000000000000000000000815260040161256f90613168565b60405180910390fd5b600081116125bb576040517f08c379a00000000000000000000000000000000000000000000000000000000081526004016125b290612fe8565b60405180910390fd5b8060658190555050565b600060019054906101000a900460ff16612614576040517f08c379a000000000000000000000000000000000000000000000000000000000815260040161260b90613168565b60405180910390fd5b816036908051906020019061262a929190612808565b508060379080519060200190612641929190612808565b505050565b600060019054906101000a900460ff16612695576040517f08c379a000000000000000000000000000000000000000000000000000000000815260040161268c90613168565b60405180910390fd5b6126a56126a0611dc7565b612436565b565b600073ffffffffffffffffffffffffffffffffffffffff168273ffffffffffffffffffffffffffffffffffffffff161415612717576040517f08c379a000000000000000000000000000000000000000000000000000000000815260040161270e906131a8565b60405180910390fd5b612723600083836124fc565b8060356000828254612735919061329c565b9250508190555080603360008473ffffffffffffffffffffffffffffffffffffffff1673ffffffffffffffffffffffffffffffffffffffff168152602001908152602001600020600082825461278b919061329c565b925050819055508173ffffffffffffffffffffffffffffffffffffffff16600073ffffffffffffffffffffffffffffffffffffffff167fddf252ad1be2c89b69c2b068fc378daa952ba7f163c4a11628f55a4df523b3ef836040516127f091906131c8565b60405180910390a361280460008383612501565b5050565b828054612814906135c4565b90600052602060002090601f016020900481019282612836576000855561287d565b82601f1061284f57805160ff191683800117855561287d565b8280016001018555821561287d579182015b8281111561287c578251825591602001919060010190612861565b5b50905061288a919061288e565b5090565b5b808211156128a757600081600090555060010161288f565b5090565b60006128be6128b984613223565b6131fe565b905080838252602082019050828560208602820111156128dd57600080fd5b60005b8581101561290d57816128f38882612955565b8452602084019350602083019250506001810190506128e0565b5050509392505050565b600061292a6129258461324f565b6131fe565b90508281526020810184848401111561294257600080fd5b61294d848285613558565b509392505050565b60008135905061296481613b01565b92915050565b60008135905061297981613b18565b92915050565b600082601f83011261299057600080fd5b81356129a08482602086016128ab565b91505092915050565b6000813590506129b881613b2f565b92915050565b600082601f8301126129cf57600080fd5b81356129df848260208601612917565b91505092915050565b6000813590506129f781613b46565b92915050565b600060208284031215612a0f57600080fd5b6000612a1d84828501612955565b91505092915050565b600060208284031215612a3857600080fd5b6000612a468482850161296a565b91505092915050565b60008060408385031215612a6257600080fd5b6000612a7085828601612955565b9250506020612a8185828601612955565b9150509250929050565b600080600060608486031215612aa057600080fd5b6000612aae86828701612955565b9350506020612abf86828701612955565b9250506040612ad0868287016129e8565b9150509250925092565b60008060408385031215612aed57600080fd5b6000612afb85828601612955565b9250506020612b0c858286016129e8565b9150509250929050565b600080600060608486031215612b2b57600080fd5b600084013567ffffffffffffffff811115612b4557600080fd5b612b518682870161297f565b935050602084013567ffffffffffffffff811115612b6e57600080fd5b612b7a8682870161297f565b925050604084013567ffffffffffffffff811115612b9757600080fd5b612ba38682870161297f565b9150509250925092565b60008060008060008060c08789031215612bc657600080fd5b600087013567ffffffffffffffff811115612be057600080fd5b612bec89828a016129be565b965050602087013567ffffffffffffffff811115612c0957600080fd5b612c1589828a016129be565b9550506040612c2689828a016129e8565b9450506060612c3789828a016129e8565b9350506080612c4889828a016129a9565b92505060a0612c5989828a016129a9565b9150509295509295509295565b600060208284031215612c7857600080fd5b6000612c86848285016129e8565b91505092915050565b60008060408385031215612ca257600080fd5b6000612cb0858286016129e8565b9250506020612cc185828601612955565b9150509250929050565b612cd4816134f1565b82525050565b612ce381613515565b82525050565b6000612cf482613280565b612cfe818561328b565b9350612d0e818560208601613567565b612d17816136fd565b840191505092915050565b6000612d2f60238361328b565b9150612d3a8261371b565b604082019050919050565b6000612d5260158361328b565b9150612d5d8261376a565b602082019050919050565b6000612d7560268361328b565b9150612d8082613793565b604082019050919050565b6000612d9860228361328b565b9150612da3826137e2565b604082019050919050565b6000612dbb601d8361328b565b9150612dc682613831565b602082019050919050565b6000612dde60268361328b565b9150612de98261385a565b604082019050919050565b6000612e01601b8361328b565b9150612e0c826138a9565b602082019050919050565b6000612e24602e8361328b565b9150612e2f826138d2565b604082019050919050565b6000612e47601b8361328b565b9150612e5282613921565b602082019050919050565b6000612e6a60208361328b565b9150612e758261394a565b602082019050919050565b6000612e8d60258361328b565b9150612e9882613973565b604082019050919050565b6000612eb060198361328b565b9150612ebb826139c2565b602082019050919050565b6000612ed360248361328b565b9150612ede826139eb565b604082019050919050565b6000612ef6602b8361328b565b9150612f0182613a3a565b604082019050919050565b6000612f1960258361328b565b9150612f2482613a89565b604082019050919050565b6000612f3c601f8361328b565b9150612f4782613ad8565b602082019050919050565b612f5b81613541565b82525050565b612f6a8161354b565b82525050565b6000602082019050612f856000830184612ccb565b92915050565b6000602082019050612fa06000830184612cda565b92915050565b60006020820190508181036000830152612fc08184612ce9565b905092915050565b60006020820190508181036000830152612fe181612d22565b9050919050565b6000602082019050818103600083015261300181612d45565b9050919050565b6000602082019050818103600083015261302181612d68565b9050919050565b6000602082019050818103600083015261304181612d8b565b9050919050565b6000602082019050818103600083015261306181612dae565b9050919050565b6000602082019050818103600083015261308181612dd1565b9050919050565b600060208201905081810360008301526130a181612df4565b9050919050565b600060208201905081810360008301526130c181612e17565b9050919050565b600060208201905081810360008301526130e181612e3a565b9050919050565b6000602082019050818103600083015261310181612e5d565b9050919050565b6000602082019050818103600083015261312181612e80565b9050919050565b6000602082019050818103600083015261314181612ea3565b9050919050565b6000602082019050818103600083015261316181612ec6565b9050919050565b6000602082019050818103600083015261318181612ee9565b9050919050565b600060208201905081810360008301526131a181612f0c565b9050919050565b600060208201905081810360008301526131c181612f2f565b9050919050565b60006020820190506131dd6000830184612f52565b92915050565b60006020820190506131f86000830184612f61565b92915050565b6000613208613219565b905061321482826135f6565b919050565b6000604051905090565b600067ffffffffffffffff82111561323e5761323d6136ce565b5b602082029050602081019050919050565b600067ffffffffffffffff82111561326a576132696136ce565b5b613273826136fd565b9050602081019050919050565b600081519050919050565b600082825260208201905092915050565b60006132a782613541565b91506132b283613541565b9250827fffffffffffffffffffffffffffffffffffffffffffffffffffffffffffffffff038211156132e7576132e6613670565b5b828201905092915050565b6000808291508390505b600185111561333c5780860481111561331857613317613670565b5b60018516156133275780820291505b80810290506133358561370e565b94506132fc565b94509492505050565b600061335082613541565b915061335b8361354b565b92506133887fffffffffffffffffffffffffffffffffffffffffffffffffffffffffffffffff8484613390565b905092915050565b6000826133a0576001905061345c565b816133ae576000905061345c565b81600181146133c457600281146133ce576133fd565b600191505061345c565b60ff8411156133e0576133df613670565b5b8360020a9150848211156133f7576133f6613670565b5b5061345c565b5060208310610133831016604e8410600b84101617156134325782820a90508381111561342d5761342c613670565b5b61345c565b61343f84848460016132f2565b9250905081840481111561345657613455613670565b5b81810290505b9392505050565b600061346e82613541565b915061347983613541565b9250817fffffffffffffffffffffffffffffffffffffffffffffffffffffffffffffffff04831182151516156134b2576134b1613670565b5b828202905092915050565b60006134c882613541565b91506134d383613541565b9250828210156134e6576134e5613670565b5b828203905092915050565b60006134fc82613521565b9050919050565b600061350e82613521565b9050919050565b60008115159050919050565b600073ffffffffffffffffffffffffffffffffffffffff82169050919050565b6000819050919050565b600060ff82169050919050565b82818337600083830152505050565b60005b8381101561358557808201518184015260208101905061356a565b83811115613594576000848401525b50505050565b60006135a582613541565b915060008214156135b9576135b8613670565b5b600182039050919050565b600060028204905060018216806135dc57607f821691505b602082108114156135f0576135ef61369f565b5b50919050565b6135ff826136fd565b810181811067ffffffffffffffff8211171561361e5761361d6136ce565b5b80604052505050565b600061363282613541565b91507fffffffffffffffffffffffffffffffffffffffffffffffffffffffffffffffff82141561366557613664613670565b5b600182019050919050565b7f4e487b7100000000000000000000000000000000000000000000000000000000600052601160045260246000fd5b7f4e487b7100000000000000000000000000000000000000000000000000000000600052602260045260246000fd5b7f4e487b7100000000000000000000000000000000000000000000000000000000600052604160045260246000fd5b6000601f19601f8301169050919050565b60008160011c9050919050565b7f45524332303a207472616e7366657220746f20746865207a65726f206164647260008201527f6573730000000000000000000000000000000000000000000000000000000000602082015250565b7f45524332304361707065643a2063617020697320300000000000000000000000600082015250565b7f4f776e61626c653a206e6577206f776e657220697320746865207a65726f206160008201527f6464726573730000000000000000000000000000000000000000000000000000602082015250565b7f45524332303a20617070726f766520746f20746865207a65726f20616464726560008201527f7373000000000000000000000000000000000000000000000000000000000000602082015250565b7f45524332303a20696e73756666696369656e7420616c6c6f77616e6365000000600082015250565b7f45524332303a207472616e7366657220616d6f756e742065786365656473206260008201527f616c616e63650000000000000000000000000000000000000000000000000000602082015250565b7f4163636f756e7420616c72656164792072656769737465726564210000000000600082015250565b7f496e697469616c697a61626c653a20636f6e747261637420697320616c72656160008201527f647920696e697469616c697a6564000000000000000000000000000000000000602082015250565b7f416c72656164792072656465656d65642074686973207765656b210000000000600082015250565b7f4f776e61626c653a2063616c6c6572206973206e6f7420746865206f776e6572600082015250565b7f45524332303a207472616e736665722066726f6d20746865207a65726f20616460008201527f6472657373000000000000000000000000000000000000000000000000000000602082015250565b7f45524332304361707065643a2063617020657863656564656400000000000000600082015250565b7f45524332303a20617070726f76652066726f6d20746865207a65726f2061646460008201527f7265737300000000000000000000000000000000000000000000000000000000602082015250565b7f496e697469616c697a61626c653a20636f6e7472616374206973206e6f74206960008201527f6e697469616c697a696e67000000000000000000000000000000000000000000602082015250565b7f45524332303a2064656372656173656420616c6c6f77616e63652062656c6f7760008201527f207a65726f000000000000000000000000000000000000000000000000000000602082015250565b7f45524332303a206d696e7420746f20746865207a65726f206164647265737300600082015250565b613b0a816134f1565b8114613b1557600080fd5b50565b613b2181613503565b8114613b2c57600080fd5b50565b613b3881613515565b8114613b4357600080fd5b50565b613b4f81613541565b8114613b5a57600080fd5b5056fea2646970667358221220476dbb8ffdbeeb8b18106a08ca946a34fa8b73fb700a5541c75f42f18d9173c564736f6c63430008040033",
  "linkReferences": {},
  "deployedLinkReferences": {}
}